{
    "contractName": "HorseGame",
    "abi": [
        {
            "inputs": [],
            "stateMutability": "nonpayable",
            "type": "constructor"
        },
        {
            "anonymous": false,
            "inputs": [
                {
                    "indexed": true,
                    "internalType": "address",
                    "name": "account",
                    "type": "address"
                },
                {
                    "indexed": true,
                    "internalType": "address",
                    "name": "operator",
                    "type": "address"
                },
                {
                    "indexed": false,
                    "internalType": "bool",
                    "name": "approved",
                    "type": "bool"
                }
            ],
            "name": "ApprovalForAll",
            "type": "event"
        },
        {
            "anonymous": false,
            "inputs": [
                {
                    "indexed": true,
                    "internalType": "uint256",
                    "name": "_raceId",
                    "type": "uint256"
                }
            ],
            "name": "EndRace",
            "type": "event"
        },
        {
            "anonymous": false,
            "inputs": [
                {
                    "indexed": true,
                    "internalType": "address",
                    "name": "previousOwner",
                    "type": "address"
                },
                {
                    "indexed": true,
                    "internalType": "address",
                    "name": "newOwner",
                    "type": "address"
                }
            ],
            "name": "OwnershipTransferred",
            "type": "event"
        },
        {
            "anonymous": false,
            "inputs": [
                {
                    "indexed": true,
                    "internalType": "uint256",
                    "name": "_raceId",
                    "type": "uint256"
                }
            ],
            "name": "StartRace",
            "type": "event"
        },
        {
            "anonymous": false,
            "inputs": [
                {
                    "indexed": true,
                    "internalType": "address",
                    "name": "operator",
                    "type": "address"
                },
                {
                    "indexed": true,
                    "internalType": "address",
                    "name": "from",
                    "type": "address"
                },
                {
                    "indexed": true,
                    "internalType": "address",
                    "name": "to",
                    "type": "address"
                },
                {
                    "indexed": false,
                    "internalType": "uint256[]",
                    "name": "ids",
                    "type": "uint256[]"
                },
                {
                    "indexed": false,
                    "internalType": "uint256[]",
                    "name": "values",
                    "type": "uint256[]"
                }
            ],
            "name": "TransferBatch",
            "type": "event"
        },
        {
            "anonymous": false,
            "inputs": [
                {
                    "indexed": true,
                    "internalType": "address",
                    "name": "operator",
                    "type": "address"
                },
                {
                    "indexed": true,
                    "internalType": "address",
                    "name": "from",
                    "type": "address"
                },
                {
                    "indexed": true,
                    "internalType": "address",
                    "name": "to",
                    "type": "address"
                },
                {
                    "indexed": false,
                    "internalType": "uint256",
                    "name": "id",
                    "type": "uint256"
                },
                {
                    "indexed": false,
                    "internalType": "uint256",
                    "name": "value",
                    "type": "uint256"
                }
            ],
            "name": "TransferSingle",
            "type": "event"
        },
        {
            "anonymous": false,
            "inputs": [
                {
                    "indexed": false,
                    "internalType": "string",
                    "name": "value",
                    "type": "string"
                },
                {
                    "indexed": true,
                    "internalType": "uint256",
                    "name": "id",
                    "type": "uint256"
                }
            ],
            "name": "URI",
            "type": "event"
        },
        {
            "inputs": [],
            "name": "COIN",
            "outputs": [
                {
                    "internalType": "uint256",
                    "name": "",
                    "type": "uint256"
                }
            ],
            "stateMutability": "view",
            "type": "function"
        },
        {
            "inputs": [],
            "name": "DURABILITY_UTILS",
            "outputs": [
                {
                    "internalType": "uint256",
                    "name": "",
                    "type": "uint256"
                }
            ],
            "stateMutability": "view",
            "type": "function"
        },
        {
            "inputs": [],
            "name": "HORSE_INIT_ID",
            "outputs": [
                {
                    "internalType": "uint256",
                    "name": "",
                    "type": "uint256"
                }
            ],
            "stateMutability": "view",
            "type": "function"
        },
        {
            "inputs": [],
            "name": "SPEED_UTILS",
            "outputs": [
                {
                    "internalType": "uint256",
                    "name": "",
                    "type": "uint256"
                }
            ],
            "stateMutability": "view",
            "type": "function"
        },
        {
            "inputs": [],
            "name": "STABILITY_UTILS",
            "outputs": [
                {
                    "internalType": "uint256",
                    "name": "",
                    "type": "uint256"
                }
            ],
            "stateMutability": "view",
            "type": "function"
        },
        {
            "inputs": [],
            "name": "admin",
            "outputs": [
                {
                    "internalType": "address",
                    "name": "",
                    "type": "address"
                }
            ],
            "stateMutability": "view",
            "type": "function"
        },
        {
            "inputs": [
                {
                    "internalType": "address",
                    "name": "account",
                    "type": "address"
                },
                {
                    "internalType": "uint256",
                    "name": "id",
                    "type": "uint256"
                }
            ],
            "name": "balanceOf",
            "outputs": [
                {
                    "internalType": "uint256",
                    "name": "",
                    "type": "uint256"
                }
            ],
            "stateMutability": "view",
            "type": "function"
        },
        {
            "inputs": [
                {
                    "internalType": "address[]",
                    "name": "accounts",
                    "type": "address[]"
                },
                {
                    "internalType": "uint256[]",
                    "name": "ids",
                    "type": "uint256[]"
                }
            ],
            "name": "balanceOfBatch",
            "outputs": [
                {
                    "internalType": "uint256[]",
                    "name": "",
                    "type": "uint256[]"
                }
            ],
            "stateMutability": "view",
            "type": "function"
        },
        {
            "inputs": [
                {
                    "internalType": "uint256",
                    "name": "_newLimit",
                    "type": "uint256"
                }
            ],
            "name": "changeMaxHorses",
            "outputs": [],
            "stateMutability": "nonpayable",
            "type": "function"
        },
        {
            "inputs": [
                {
                    "internalType": "address",
                    "name": "_newTreasury",
                    "type": "address"
                }
            ],
            "name": "changeTreasury",
            "outputs": [],
            "stateMutability": "nonpayable",
            "type": "function"
        },
        {
            "inputs": [
                {
                    "internalType": "address",
                    "name": "_racer",
                    "type": "address"
                }
            ],
            "name": "checkHorseBalance",
            "outputs": [
                {
                    "internalType": "uint256[]",
                    "name": "",
                    "type": "uint256[]"
                }
            ],
            "stateMutability": "view",
            "type": "function"
        },
        {
            "inputs": [],
            "name": "contractBalance",
            "outputs": [
                {
                    "internalType": "uint256",
                    "name": "",
                    "type": "uint256"
                }
            ],
            "stateMutability": "view",
            "type": "function"
        },
        {
            "inputs": [
                {
                    "internalType": "uint256",
                    "name": "_raceId",
                    "type": "uint256"
                },
                {
                    "internalType": "address[]",
                    "name": "_racers",
                    "type": "address[]"
                },
                {
                    "internalType": "uint256[]",
                    "name": "_horses",
                    "type": "uint256[]"
                },
                {
                    "internalType": "uint256[]",
                    "name": "_rankings",
                    "type": "uint256[]"
                }
            ],
            "name": "endRace",
            "outputs": [
                {
                    "internalType": "bool",
                    "name": "",
                    "type": "bool"
                }
            ],
            "stateMutability": "nonpayable",
            "type": "function"
        },
        {
            "inputs": [
                {
                    "internalType": "uint256",
                    "name": "_horseId",
                    "type": "uint256"
                },
                {
                    "internalType": "uint256",
                    "name": "_statId",
                    "type": "uint256"
                }
            ],
            "name": "horseStats",
            "outputs": [
                {
                    "internalType": "uint256",
                    "name": "",
                    "type": "uint256"
                }
            ],
            "stateMutability": "view",
            "type": "function"
        },
        {
            "inputs": [
                {
                    "internalType": "uint256",
                    "name": "",
                    "type": "uint256"
                }
            ],
            "name": "horses",
            "outputs": [
                {
                    "internalType": "address",
                    "name": "owner",
                    "type": "address"
                },
                {
                    "internalType": "uint256",
                    "name": "speed",
                    "type": "uint256"
                },
                {
                    "internalType": "uint256",
                    "name": "durability",
                    "type": "uint256"
                },
                {
                    "internalType": "uint256",
                    "name": "stability",
                    "type": "uint256"
                },
                {
                    "internalType": "uint256",
                    "name": "breeding_count",
                    "type": "uint256"
                },
                {
                    "internalType": "uint256",
                    "name": "race_count",
                    "type": "uint256"
                }
            ],
            "stateMutability": "view",
            "type": "function"
        },
        {
            "inputs": [
                {
                    "internalType": "address",
                    "name": "account",
                    "type": "address"
                },
                {
                    "internalType": "address",
                    "name": "operator",
                    "type": "address"
                }
            ],
            "name": "isApprovedForAll",
            "outputs": [
                {
                    "internalType": "bool",
                    "name": "",
                    "type": "bool"
                }
            ],
            "stateMutability": "view",
            "type": "function"
        },
        {
            "inputs": [],
            "name": "maxNumOfHorses",
            "outputs": [
                {
                    "internalType": "uint256",
                    "name": "",
                    "type": "uint256"
                }
            ],
            "stateMutability": "view",
            "type": "function"
        },
        {
            "inputs": [
                {
                    "internalType": "uint256",
                    "name": "_amount",
                    "type": "uint256"
                }
            ],
            "name": "mintCoin",
            "outputs": [],
            "stateMutability": "payable",
            "type": "function"
        },
        {
            "inputs": [
                {
                    "internalType": "address",
                    "name": "_minter",
                    "type": "address"
                }
            ],
            "name": "mintHorse",
            "outputs": [
                {
                    "internalType": "uint256",
                    "name": "",
                    "type": "uint256"
                }
            ],
            "stateMutability": "payable",
            "type": "function"
        },
        {
            "inputs": [],
            "name": "mintHorse",
            "outputs": [
                {
                    "internalType": "uint256",
                    "name": "",
                    "type": "uint256"
                }
            ],
            "stateMutability": "payable",
            "type": "function"
        },
        {
            "inputs": [
                {
                    "internalType": "uint256",
                    "name": "_type",
                    "type": "uint256"
                },
                {
                    "internalType": "uint256",
                    "name": "_quality",
                    "type": "uint256"
                },
                {
                    "internalType": "uint256",
                    "name": "_amount",
                    "type": "uint256"
                }
            ],
            "name": "mintUtil",
            "outputs": [],
            "stateMutability": "nonpayable",
            "type": "function"
        },
        {
            "inputs": [
                {
                    "internalType": "uint256[]",
                    "name": "_types",
                    "type": "uint256[]"
                },
                {
                    "internalType": "uint256[]",
                    "name": "_qualities",
                    "type": "uint256[]"
                },
                {
                    "internalType": "uint256[]",
                    "name": "_amounts",
                    "type": "uint256[]"
                }
            ],
            "name": "mintUtilBatch",
            "outputs": [],
            "stateMutability": "nonpayable",
            "type": "function"
        },
        {
            "inputs": [],
            "name": "nftPrice",
            "outputs": [
                {
                    "internalType": "uint256",
                    "name": "",
                    "type": "uint256"
                }
            ],
            "stateMutability": "view",
            "type": "function"
        },
        {
            "inputs": [],
            "name": "numOfHorses",
            "outputs": [
                {
                    "internalType": "uint256",
                    "name": "",
                    "type": "uint256"
                }
            ],
            "stateMutability": "view",
            "type": "function"
        },
        {
            "inputs": [],
            "name": "owner",
            "outputs": [
                {
                    "internalType": "address",
                    "name": "",
                    "type": "address"
                }
            ],
            "stateMutability": "view",
            "type": "function"
        },
        {
            "inputs": [],
            "name": "raceId",
            "outputs": [
                {
                    "internalType": "uint256",
                    "name": "",
                    "type": "uint256"
                }
            ],
            "stateMutability": "view",
            "type": "function"
        },
        {
            "inputs": [
                {
                    "internalType": "uint256",
                    "name": "",
                    "type": "uint256"
                }
            ],
            "name": "races",
            "outputs": [
                {
                    "internalType": "uint256",
                    "name": "class",
                    "type": "uint256"
                },
                {
                    "internalType": "uint256",
                    "name": "balance",
                    "type": "uint256"
                },
                {
                    "internalType": "uint256",
                    "name": "numOfRacers",
                    "type": "uint256"
                },
                {
                    "internalType": "bool",
                    "name": "finished",
                    "type": "bool"
                }
            ],
            "stateMutability": "view",
            "type": "function"
        },
        {
            "inputs": [],
            "name": "racesBalance",
            "outputs": [
                {
                    "internalType": "uint256",
                    "name": "",
                    "type": "uint256"
                }
            ],
            "stateMutability": "view",
            "type": "function"
        },
        {
            "inputs": [],
            "name": "renounceOwnership",
            "outputs": [],
            "stateMutability": "nonpayable",
            "type": "function"
        },
        {
            "inputs": [
                {
                    "internalType": "address",
                    "name": "from",
                    "type": "address"
                },
                {
                    "internalType": "address",
                    "name": "to",
                    "type": "address"
                },
                {
                    "internalType": "uint256[]",
                    "name": "ids",
                    "type": "uint256[]"
                },
                {
                    "internalType": "uint256[]",
                    "name": "amounts",
                    "type": "uint256[]"
                },
                {
                    "internalType": "bytes",
                    "name": "data",
                    "type": "bytes"
                }
            ],
            "name": "safeBatchTransferFrom",
            "outputs": [],
            "stateMutability": "nonpayable",
            "type": "function"
        },
        {
            "inputs": [
                {
                    "internalType": "address",
                    "name": "from",
                    "type": "address"
                },
                {
                    "internalType": "address",
                    "name": "to",
                    "type": "address"
                },
                {
                    "internalType": "uint256",
                    "name": "id",
                    "type": "uint256"
                },
                {
                    "internalType": "uint256",
                    "name": "amount",
                    "type": "uint256"
                },
                {
                    "internalType": "bytes",
                    "name": "data",
                    "type": "bytes"
                }
            ],
            "name": "safeTransferFrom",
            "outputs": [],
            "stateMutability": "nonpayable",
            "type": "function"
        },
        {
            "inputs": [
                {
                    "internalType": "address",
                    "name": "operator",
                    "type": "address"
                },
                {
                    "internalType": "bool",
                    "name": "approved",
                    "type": "bool"
                }
            ],
            "name": "setApprovalForAll",
            "outputs": [],
            "stateMutability": "nonpayable",
            "type": "function"
        },
        {
            "inputs": [
                {
                    "internalType": "uint256",
                    "name": "_newPrice",
                    "type": "uint256"
                },
                {
                    "internalType": "uint256",
                    "name": "_type",
                    "type": "uint256"
                }
            ],
            "name": "setPrice",
            "outputs": [],
            "stateMutability": "nonpayable",
            "type": "function"
        },
        {
            "inputs": [
                {
                    "internalType": "string",
                    "name": "_newURI",
                    "type": "string"
                }
            ],
            "name": "setURI",
            "outputs": [],
            "stateMutability": "nonpayable",
            "type": "function"
        },
        {
            "inputs": [
                {
                    "internalType": "uint256",
                    "name": "_raceId",
                    "type": "uint256"
                },
                {
                    "internalType": "address[]",
                    "name": "_racers",
                    "type": "address[]"
                },
                {
                    "internalType": "uint256[]",
                    "name": "_horses",
                    "type": "uint256[]"
                },
                {
                    "internalType": "uint256",
                    "name": "_class",
                    "type": "uint256"
                }
            ],
            "name": "startRace",
            "outputs": [
                {
                    "internalType": "uint256",
                    "name": "",
                    "type": "uint256"
                }
            ],
            "stateMutability": "nonpayable",
            "type": "function"
        },
        {
            "inputs": [
                {
                    "internalType": "bytes4",
                    "name": "interfaceId",
                    "type": "bytes4"
                }
            ],
            "name": "supportsInterface",
            "outputs": [
                {
                    "internalType": "bool",
                    "name": "",
                    "type": "bool"
                }
            ],
            "stateMutability": "view",
            "type": "function"
        },
        {
            "inputs": [],
            "name": "tokenPrice",
            "outputs": [
                {
                    "internalType": "uint256",
                    "name": "",
                    "type": "uint256"
                }
            ],
            "stateMutability": "view",
            "type": "function"
        },
        {
            "inputs": [
                {
                    "internalType": "address",
                    "name": "newOwner",
                    "type": "address"
                }
            ],
            "name": "transferOwnership",
            "outputs": [],
            "stateMutability": "nonpayable",
            "type": "function"
        },
        {
            "inputs": [],
            "name": "unit",
            "outputs": [
                {
                    "internalType": "uint256",
                    "name": "",
                    "type": "uint256"
                }
            ],
            "stateMutability": "view",
            "type": "function"
        },
        {
            "inputs": [
                {
                    "internalType": "uint256",
                    "name": "_horseId",
                    "type": "uint256"
                },
                {
                    "internalType": "uint256",
                    "name": "_stat",
                    "type": "uint256"
                }
            ],
            "name": "upgradeHorse",
            "outputs": [],
            "stateMutability": "nonpayable",
            "type": "function"
        },
        {
            "inputs": [
                {
                    "internalType": "uint256",
                    "name": "",
                    "type": "uint256"
                }
            ],
            "name": "uri",
            "outputs": [
                {
                    "internalType": "string",
                    "name": "",
                    "type": "string"
                }
            ],
            "stateMutability": "view",
            "type": "function"
        },
        {
            "inputs": [],
            "name": "withdrawAll",
            "outputs": [],
            "stateMutability": "nonpayable",
            "type": "function"
        }
    ],
    "bytecode": "61271060055560a0604052600060809081526006906200002090826200022a565b50662386f26fc10000600755655af3107a400060085560146010553480156200004857600080fd5b506006805462000058906200019b565b80601f016020809104026020016040519081016040528092919081815260200182805462000086906200019b565b8015620000d75780601f10620000ab57610100808354040283529160200191620000d7565b820191906000526020600020905b815481529060010190602001808311620000b957829003601f168201915b5050505050620000ed816200012160201b60201c565b50620000f93362000133565b600b8054336001600160a01b03199182168117909255600e80549091169091179055620002f6565b60026200012f82826200022a565b5050565b600380546001600160a01b038381166001600160a01b0319831681179093556040519116919082907f8be0079c531659141344cd1fd0a4f28419497f9722a3daafe3b4186f6b6457e090600090a35050565b634e487b7160e01b600052604160045260246000fd5b600181811c90821680620001b057607f821691505b602082108103620001d157634e487b7160e01b600052602260045260246000fd5b50919050565b601f8211156200022557600081815260208120601f850160051c81016020861015620002005750805b601f850160051c820191505b8181101562000221578281556001016200020c565b5050505b505050565b81516001600160401b0381111562000246576200024662000185565b6200025e816200025784546200019b565b84620001d7565b602080601f8311600181146200029657600084156200027d5750858301515b600019600386901b1c1916600185901b17855562000221565b600085815260208120601f198616915b82811015620002c757888601518255948401946001909101908401620002a6565b5085821015620002e65787850151600019600388901b60f8161c191681555b5050505050600190811b01905550565b6140b480620003066000396000f3fe6080604052600436106102505760003560e01c806387c8fa4711610139578063c2e1a46c116100b6578063f242432a1161007a578063f242432a14610748578063f2fde38b14610768578063f3f7d04f14610788578063f7d975771461079b578063f851a440146107bb578063fa3cf6c2146107db57600080fd5b8063c2e1a46c14610694578063e985e9c5146106b4578063eaf9bc14146106fd578063ed3a865e1461071d578063f12b78401461073357600080fd5b80639bb7f50e116100fd5780639bb7f50e14610611578063a22cb46514610627578063a54a72b714610647578063afdc71a11461065c578063b14f2a391461067457600080fd5b806387c8fa47146105025780638b7afe2e146105225780638da5cb5b146105385780638f8b5cde1461056a578063907af6c0146105fb57600080fd5b8063346334fb116101d257806361fc6a671161019657806361fc6a6714610433578063715018a61461043b5780637bbc469e146104505780637e5e52f3146104b75780637ff9b596146104d7578063853828b6146104ed57600080fd5b8063346334fb146103ab57806340779c1d146103be5780634b6bd7e0146103de5780634c76c243146103f35780634e1273f41461041357600080fd5b80630e89341c116102195780630e89341c1461030657806311bb58cf14610333578063268cf127146103485780632eb2c2d6146103755780632ef76b961461039557600080fd5b8062fdd58e1461025557806301ffc9a71461028857806302fe5305146102b8578063051907dc146102da5780630d39fc81146102f0575b600080fd5b34801561026157600080fd5b5061027561027036600461332e565b6107fb565b6040519081526020015b60405180910390f35b34801561029457600080fd5b506102a86102a336600461336e565b610894565b604051901515815260200161027f565b3480156102c457600080fd5b506102d86102d3366004613431565b6108e4565b005b3480156102e657600080fd5b5061027560045481565b3480156102fc57600080fd5b5061027560075481565b34801561031257600080fd5b50610326610321366004613481565b6108f8565b60405161027f91906134e0565b34801561033f57600080fd5b50610275600a81565b34801561035457600080fd5b506103686103633660046134f3565b61098c565b60405161027f9190613549565b34801561038157600080fd5b506102d8610390366004613610565b610aff565b3480156103a157600080fd5b5061027560055481565b6102756103b93660046134f3565b610b4b565b3480156103ca57600080fd5b506102d86103d93660046136b9565b610ca8565b3480156103ea57600080fd5b50610275601481565b3480156103ff57600080fd5b5061027561040e366004613748565b61122d565b34801561041f57600080fd5b5061036861042e3660046137bc565b6114fc565b610275611625565b34801561044757600080fd5b506102d8611635565b34801561045c57600080fd5b5061049561046b366004613481565b60126020526000908152604090208054600182015460028301546003909301549192909160ff1684565b604080519485526020850193909352918301521515606082015260800161027f565b3480156104c357600080fd5b506102d86104d2366004613481565b611649565b3480156104e357600080fd5b5061027560085481565b3480156104f957600080fd5b506102d86116e1565b34801561050e57600080fd5b506102a861051d36600461381f565b61177e565b34801561052e57600080fd5b50610275600c5481565b34801561054457600080fd5b506003546001600160a01b03165b6040516001600160a01b03909116815260200161027f565b34801561057657600080fd5b506105c4610585366004613481565b600a602052600090815260409020805460018201546002830154600384015460048501546005909501546001600160a01b039094169492939192909186565b604080516001600160a01b0390971687526020870195909552938501929092526060840152608083015260a082015260c00161027f565b34801561060757600080fd5b5061027560105481565b34801561061d57600080fd5b50610275600d5481565b34801561063357600080fd5b506102d86106423660046138b0565b611e04565b34801561065357600080fd5b50610275600181565b34801561066857600080fd5b50610275630bebc20081565b34801561068057600080fd5b506102d861068f3660046134f3565b611e13565b3480156106a057600080fd5b506102756106af3660046136b9565b611e3d565b3480156106c057600080fd5b506102a86106cf3660046138ec565b6001600160a01b03918216600090815260016020908152604080832093909416825291909152205460ff1690565b34801561070957600080fd5b506102d861071836600461391f565b611f36565b34801561072957600080fd5b5061027560115481565b34801561073f57600080fd5b50610275601e81565b34801561075457600080fd5b506102d861076336600461394b565b6120ac565b34801561077457600080fd5b506102d86107833660046134f3565b61217f565b6102d8610796366004613481565b6121f5565b3480156107a757600080fd5b506102d86107b63660046136b9565b61226e565b3480156107c757600080fd5b50600b54610552906001600160a01b031681565b3480156107e757600080fd5b506102d86107f63660046139af565b6122e3565b60006001600160a01b03831661086b5760405162461bcd60e51b815260206004820152602a60248201527f455243313135353a2061646472657373207a65726f206973206e6f742061207660448201526930b634b21037bbb732b960b11b60648201526084015b60405180910390fd5b506000818152602081815260408083206001600160a01b03861684529091529020545b92915050565b60006001600160e01b03198216636cdb3d1360e11b14806108c557506001600160e01b031982166303a24d0760e21b145b8061088e57506301ffc9a760e01b6001600160e01b031983161461088e565b6108ec612632565b6108f58161268c565b50565b60606002805461090790613a36565b80601f016020809104026020016040519081016040528092919081815260200182805461093390613a36565b80156109805780601f1061095557610100808354040283529160200191610980565b820191906000526020600020905b81548152906001019060200180831161096357829003601f168201915b50505050509050919050565b60606000806109a0630bebc2006001613a86565b90505b6004546109b490630bebc200613a86565b81116109fb576000818152600a60205260409020546001600160a01b038086169116036109e957816109e581613a99565b9250505b806109f381613a99565b9150506109a3565b506000610a09826001613a86565b6001600160401b03811115610a2057610a20613392565b604051908082528060200260200182016040528015610a49578160200160208202803683370190505b5090508181600081518110610a6057610a60613ab2565b6020908102919091010152600080610a7d630bebc2006001613a86565b90505b600454610a9190630bebc200613a86565b8111610af5576000818152600a60205260409020546001600160a01b03808816911603610ae3578083610ac384613a99565b93508381518110610ad657610ad6613ab2565b6020026020010181815250505b80610aed81613a99565b915050610a80565b5090949350505050565b6001600160a01b038516331480610b1b5750610b1b85336106cf565b610b375760405162461bcd60e51b815260040161086290613ac8565b610b448585858585612698565b5050505050565b6000610b5f6003546001600160a01b031690565b6001600160a01b0316336001600160a01b031614610bc957600754341015610bc95760405162461bcd60e51b815260206004820152601b60248201527f6d696e74486f7273653a204e6f7420656e6f756768204d4154494300000000006044820152606401610862565b60055460045410610c1c5760405162461bcd60e51b815260206004820152601d60248201527f6d696e74486f7273653a2065786365656473206d696e74206c696d69740000006044820152606401610862565b6000600460008154610c2d90613a99565b9182905550610c4090630bebc200613a86565b9050610c5e838260016040518060200160405280600081525061282c565b6000818152600a6020819052604090912080546001600160a01b0319166001600160a01b039590951694909417845560018401819055600284018190556003909301929092555090565b630bebc20082118015610ccb5750600454610cc790630bebc200613a86565b8211155b610d175760405162461bcd60e51b815260206004820152601f60248201527f75706772616465486f7273653a205f686f7273654964206d69736d61746368006044820152606401610862565b600a811480610d265750601481145b80610d315750601e81145b610d7d5760405162461bcd60e51b815260206004820152601c60248201527f75706772616465486f7273653a205f73746174206d69736d61746368000000006044820152606401610862565b6000828152600a60205260409020546001600160a01b0316338114610de45760405162461bcd60e51b815260206004820152601760248201527f75706772616465486f7273653a206e6f74206f776e65720000000000000000006044820152606401610862565b6000600a8303610e0657506000838152600a6020526040902060010154610e42565b60148303610e2657506000838152600a6020526040902060020154610e42565b601e8303610e4257506000838152600a60205260409020600301545b60648110610e925760405162461bcd60e51b815260206004820152601960248201527f75706772616465486f7273653a20616c7265616479206d6178000000000000006044820152606401610862565b604080516002808252606082018352600092602083019080368337505060408051600280825260608201835293945060009390925090602083019080368337019050509050610ee2856001613a86565b82600081518110610ef557610ef5613ab2565b6020908102919091010152610f0b856002613a86565b82600181518110610f1e57610f1e613ab2565b6020908102919091010152610f34600a84613b17565b600103610fd7576002610f4c85610270886001613a86565b10158015610f6957506001610f6685610270886002613a86565b10155b610f855760405162461bcd60e51b815260040161086290613b39565b600281600081518110610f9a57610f9a613ab2565b602002602001018181525050600181600181518110610fbb57610fbb613ab2565b602002602001018181525050610fd2848383612906565b6111ab565b610fe2600a84613b17565b600203611048576003610ffa85610270886001613a86565b101580156110175750600161101485610270886002613a86565b10155b6110335760405162461bcd60e51b815260040161086290613b39565b600381600081518110610f9a57610f9a613ab2565b611053600a84613b17565b6003036110d957600361106b85610270886001613a86565b1015801561108757506002611084856102708884613a86565b10155b6110a35760405162461bcd60e51b815260040161086290613b39565b6003816000815181106110b8576110b8613ab2565b602002602001018181525050600281600181518110610fbb57610fbb613ab2565b6110e4600a84613b17565b6110f385610270886001613a86565b1015801561112557506002611109600a85613b17565b6111139190613b70565b61112285610270886002613a86565b10155b6111415760405162461bcd60e51b815260040161086290613b39565b61114c600a84613b17565b8160008151811061115f5761115f613ab2565b60209081029190910101526002611177600a85613b17565b6111819190613b70565b8160018151811061119457611194613ab2565b6020026020010181815250506111ab848383612906565b600a85036111d5576111be836001613a86565b6000878152600a6020526040902060010155611225565b601485036111ff576111e8836001613a86565b6000878152600a6020526040902060020155611225565b601e850361122557611212836001613a86565b6000878152600a60205260409020600301555b505050505050565b600060088451111561129e5760405162461bcd60e51b815260206004820152603460248201527f47616d653a206e756d626572206f66207261636572732063616e6e6f7420657860448201527318d95959081b585e1a5b5d5b48185b1b1bddd95960621b6064820152608401610862565b825184511461130a5760405162461bcd60e51b815260206004820152603260248201527f47616d653a206e756d626572206f662072616365727320616e6420686f7273656044820152711cc81a185d99481d1bc8189948195c5d585b60721b6064820152608401610862565b6000858152601260209081526040909120855161132f9260049092019187019061325d565b506000601054836113409190613b83565b905060005b85518160ff16101561140e5781611379878360ff168151811061136a5761136a613ab2565b602002602001015160016107fb565b10156113fc5760405162461bcd60e51b815260206004820152604660248201527f7374617274526163653a2045616368207261636572206d75737420686176652060448201527f6174206c6561737420656e74727920707269636520696e2074686569722062616064820152656c616e63652160d01b608482015260a401610862565b8061140681613b9a565b915050611345565b508451600087815260126020526040812060020191909155805b60008881526012602052604090206002015460ff8216101561148a5761146c878260ff168151811061145c5761145c613ab2565b6020026020010151600185612a8f565b6114768383613a86565b91508061148281613b9a565b915050611428565b5060008781526012602052604081206001810183905560038101805460ff19169055859055600d80548392906114c1908490613a86565b909155505060405187907f85a3bfdaf17ccbd6878d42fe8f0396c6bc101c6f3849ea3060ab0692a4928a3290600090a2509495945050505050565b606081518351146115615760405162461bcd60e51b815260206004820152602960248201527f455243313135353a206163636f756e747320616e6420696473206c656e677468604482015268040dad2e6dac2e8c6d60bb1b6064820152608401610862565b600083516001600160401b0381111561157c5761157c613392565b6040519080825280602002602001820160405280156115a5578160200160208202803683370190505b50905060005b845181101561161d576115f08582815181106115c9576115c9613ab2565b60200260200101518583815181106115e3576115e3613ab2565b60200260200101516107fb565b82828151811061160257611602613ab2565b602090810291909101015261161681613a99565b90506115ab565b509392505050565b600061163033610b4b565b905090565b61163d612632565b6116476000612b93565b565b611651612632565b80600554106116dc5760405162461bcd60e51b815260206004820152604b60248201527f6368616e67654d6178486f727365733a20476976656e206c696d69742069732060448201527f6c657373207468616e2063757272656e74206d6178696d756d206e756d62657260648201526a206f6620686f727365732160a81b608482015260a401610862565b600555565b6116e9612632565b600e546040516000916001600160a01b03169047908381818185875af1925050503d8060008114611736576040519150601f19603f3d011682016040523d82523d6000602084013e61173b565b606091505b50509050806108f55760405162461bcd60e51b815260206004820152600f60248201526e151c985b9cd9995c8819985a5b1959608a1b6044820152606401610862565b60008481526012602052604081206003015460ff16156117f05760405162461bcd60e51b815260206004820152602760248201527f656e64526163653a2054686973207261636520697320616c72656164792066696044820152666e69736865642160c81b6064820152608401610862565b600085815260126020526040902060038101805460ff191660011790558451600290910154148015611823575082518451145b8015611830575081518451145b61187c5760405162461bcd60e51b815260206004820152601e60248201527f656e64526163653a20696e707574206c656e677468206d69736d6174636800006044820152606401610862565b60005b60008681526012602052604090206002015460ff8216101561195f57848160ff16815181106118b0576118b0613ab2565b60200260200101516001600160a01b0316601260008881526020019081526020016000206004018260ff16815481106118eb576118eb613ab2565b6000918252602090912001546001600160a01b03161461194d5760405162461bcd60e51b815260206004820181905260248201527f656e64526163653a206c697374206f6620726163657273206d69736d617463686044820152606401610862565b8061195781613b9a565b91505061187f565b5060008581526012602090815260409091208351611985926006909201918501906132c2565b50600085815260126020526040812060010154905b60008781526012602052604090206002015460ff82161015611d77576119f9858260ff16815181106119ce576119ce613ab2565b602002602001015188868460ff16815181106119ec576119ec613ab2565b6020026020010151612be5565b6000878152601260205260409020600601805460ff8316908110611a1f57611a1f613ab2565b9060005260206000200154600103611ac5576064611a3e83602d613b83565b611a489190613b17565b60008881526012602052604081206001018054909190611a69908490613b70565b92505081905550611ac0868260ff1681518110611a8857611a88613ab2565b60200260200101516001606485602d611aa19190613b83565b611aab9190613b17565b6040518060200160405280600081525061282c565b611d65565b6000878152601260205260409020600601805460ff8316908110611aeb57611aeb613ab2565b9060005260206000200154600203611b6d576064611b0a836012613b83565b611b149190613b17565b60008881526012602052604081206001018054909190611b35908490613b70565b92505081905550611ac0868260ff1681518110611b5457611b54613ab2565b602002602001015160016064856012611aa19190613b83565b6000878152601260205260409020600601805460ff8316908110611b9357611b93613ab2565b9060005260206000200154600303611c15576064611bb283600d613b83565b611bbc9190613b17565b60008881526012602052604081206001018054909190611bdd908490613b70565b92505081905550611ac0868260ff1681518110611bfc57611bfc613ab2565b60200260200101516001606485600d611aa19190613b83565b6000878152601260205260409020600601805460ff8316908110611c3b57611c3b613ab2565b9060005260206000200154600403611cbd576064611c5a836009613b83565b611c649190613b17565b60008881526012602052604081206001018054909190611c85908490613b70565b92505081905550611ac0868260ff1681518110611ca457611ca4613ab2565b602002602001015160016064856009611aa19190613b83565b6000878152601260205260409020600601805460ff8316908110611ce357611ce3613ab2565b9060005260206000200154600503611d65576064611d02836005613b83565b611d0c9190613b17565b60008881526012602052604081206001018054909190611d2d908490613b70565b92505081905550611d65868260ff1681518110611d4c57611d4c613ab2565b602002602001015160016064856005611aa19190613b83565b80611d6f81613b9a565b91505061199a565b50600086815260126020526040812060010154600f805491929091611d9d908490613a86565b90915550506000868152601260205260408120600101819055600d8054839290611dc8908490613b70565b909155505060405186907f81c9e00956825a81561b8f0be9610551709ff5b44de53acc38c16a8021f4068e90600090a250600195945050505050565b611e0f338383612c66565b5050565b611e1b612632565b600e80546001600160a01b0319166001600160a01b0392909216919091179055565b6000630bebc20083118015611e625750600454611e5e90630bebc200613a86565b8311155b611e7e5760405162461bcd60e51b815260040161086290613bb9565b81600003611ece576000838152600a60205260409020600381810154600283015460019093015491929091611eb39190613a86565b611ebd9190613a86565b611ec79190613b17565b905061088e565b81600103611eee57506000828152600a602052604090206001015461088e565b81600203611f0e57506000828152600a602052604090206002015461088e565b81600303611f2e57506000828152600a602052604090206003015461088e565b50600061088e565b600a831480611f455750601483145b80611f505750601e83145b611f9c5760405162461bcd60e51b815260206004820152601760248201527f6d696e745574696c3a2074797065206d69736d617463680000000000000000006044820152606401610862565b8160011480611fab5750816002145b611ff75760405162461bcd60e51b815260206004820152601b60248201527f6d696e745574696c3a205f7175616c697479206d69736d6174636800000000006044820152606401610862565b600081612005846001613a86565b61201090600a613b83565b61201a9190613b83565b90506120273360016107fb565b8111156120765760405162461bcd60e51b815260206004820152601860248201527f6d696e745574696c3a204e6f7420656e6f756768204e465800000000000000006044820152606401610862565b61208233600183612a8f565b6120a6336120908587613a86565b846040518060200160405280600081525061282c565b50505050565b630bebc200831180156120cf57506004546120cb90630bebc200613a86565b8311155b61211b5760405162461bcd60e51b815260206004820152601b60248201527f736166655472616e7366657246726f6d3a204e4f5420686f72736500000000006044820152606401610862565b6000838152600a60205260409020546001600160a01b0386811691161461214157600080fd5b61214e8585858585612d46565b50506000908152600a6020526040902080546001600160a01b0319166001600160a01b039290921691909117905550565b612187612632565b6001600160a01b0381166121ec5760405162461bcd60e51b815260206004820152602660248201527f4f776e61626c653a206e6577206f776e657220697320746865207a65726f206160448201526564647265737360d01b6064820152608401610862565b6108f581612b93565b806008546122039190613b83565b3410156122525760405162461bcd60e51b815260206004820152601a60248201527f6d696e74436f696e3a204e6f7420656e6f756768204d415449430000000000006044820152606401610862565b6108f5336001836040518060200160405280600081525061282c565b612276612632565b8015806122835750806001145b6122cf5760405162461bcd60e51b815260206004820152601760248201527f73657450726963653a2074797065206d69736d617463680000000000000000006044820152606401610862565b806000036122dd5750600755565b50600855565b815183511480156122f5575080518351145b61234f5760405162461bcd60e51b815260206004820152602560248201527f6d696e745574696c42617463683a20696e707574206c656e67746873206d69736044820152640dac2e8c6d60db1b6064820152608401610862565b60008084516001600160401b0381111561236b5761236b613392565b604051908082528060200260200182016040528015612394578160200160208202803683370190505b50905060005b85518110156125b057600a8682815181106123b7576123b7613ab2565b602002602001015114806123e4575060148682815181106123da576123da613ab2565b6020026020010151145b806124085750601e8682815181106123fe576123fe613ab2565b6020026020010151145b6124545760405162461bcd60e51b815260206004820152601c60248201527f6d696e745574696c42617463683a2074797065206d69736d61746368000000006044820152606401610862565b84818151811061246657612466613ab2565b602002602001015160011480612495575084818151811061248957612489613ab2565b60200260200101516002145b6124ec5760405162461bcd60e51b815260206004820152602260248201527f6d696e745574696c42617463683a205f7175616c6974696573206d69736d61746044820152610c6d60f31b6064820152608401610862565b8381815181106124fe576124fe613ab2565b602002602001015185828151811061251857612518613ab2565b6020026020010151600161252c9190613a86565b61253790600a613b83565b6125419190613b83565b925084818151811061255557612555613ab2565b602002602001015186828151811061256f5761256f613ab2565b60200260200101516125819190613a86565b82828151811061259357612593613ab2565b6020908102919091010152806125a881613a99565b91505061239a565b506125bc3360016107fb565b82111561260b5760405162461bcd60e51b815260206004820152601d60248201527f6d696e745574696c42617463683a204e6f7420656e6f756768204e46580000006044820152606401610862565b61261733600184612a8f565b610b4433828560405180602001604052806000815250612d8b565b6003546001600160a01b031633146116475760405162461bcd60e51b815260206004820181905260248201527f4f776e61626c653a2063616c6c6572206973206e6f7420746865206f776e65726044820152606401610862565b6002611e0f8282613c45565b81518351146126b95760405162461bcd60e51b815260040161086290613d04565b6001600160a01b0384166126df5760405162461bcd60e51b815260040161086290613d4c565b3360005b84518110156127c657600085828151811061270057612700613ab2565b60200260200101519050600085838151811061271e5761271e613ab2565b602090810291909101810151600084815280835260408082206001600160a01b038e16835290935291909120549091508181101561276e5760405162461bcd60e51b815260040161086290613d91565b6000838152602081815260408083206001600160a01b038e8116855292528083208585039055908b168252812080548492906127ab908490613a86565b92505081905550505050806127bf90613a99565b90506126e3565b50846001600160a01b0316866001600160a01b0316826001600160a01b03167f4a39dc06d4c0dbc64b70af90fd698a233a518aa5d07e595d983b8c0526c8f7fb8787604051612816929190613ddb565b60405180910390a4611225818787878787612ed2565b6001600160a01b0384166128525760405162461bcd60e51b815260040161086290613e09565b33600061285e8561302d565b9050600061286b8561302d565b90506000868152602081815260408083206001600160a01b038b1684529091528120805487929061289d908490613a86565b909155505060408051878152602081018790526001600160a01b03808a1692600092918716917fc3d58168c5ae7397731d063d5bbf3d657854427343f4c083240f7aacaa2d0f62910160405180910390a46128fd83600089898989613078565b50505050505050565b6001600160a01b03831661292c5760405162461bcd60e51b815260040161086290613e4a565b805182511461294d5760405162461bcd60e51b815260040161086290613d04565b6040805160208101909152600090523360005b8351811015612a2257600084828151811061297d5761297d613ab2565b60200260200101519050600084838151811061299b5761299b613ab2565b602090810291909101810151600084815280835260408082206001600160a01b038c1683529093529190912054909150818110156129eb5760405162461bcd60e51b815260040161086290613e8d565b6000928352602083815260408085206001600160a01b038b1686529091529092209103905580612a1a81613a99565b915050612960565b5060006001600160a01b0316846001600160a01b0316826001600160a01b03167f4a39dc06d4c0dbc64b70af90fd698a233a518aa5d07e595d983b8c0526c8f7fb8686604051612a73929190613ddb565b60405180910390a46040805160208101909152600090526120a6565b6001600160a01b038316612ab55760405162461bcd60e51b815260040161086290613e4a565b336000612ac18461302d565b90506000612ace8461302d565b60408051602080820183526000918290528882528181528282206001600160a01b038b1683529052205490915084811015612b1b5760405162461bcd60e51b815260040161086290613e8d565b6000868152602081815260408083206001600160a01b038b81168086529184528285208a8703905582518b81529384018a90529092908816917fc3d58168c5ae7397731d063d5bbf3d657854427343f4c083240f7aacaa2d0f62910160405180910390a46040805160208101909152600090526128fd565b600380546001600160a01b038381166001600160a01b0319831681179093556040519116919082907f8be0079c531659141344cd1fd0a4f28419497f9722a3daafe3b4186f6b6457e090600090a35050565b630bebc20083118015612c085750600454612c0490630bebc200613a86565b8311155b612c245760405162461bcd60e51b815260040161086290613bb9565b6000838152600a60205260408120600501805491612c4183613a99565b90915550506000928352600a6020908152604080852093855260069093019052912055565b816001600160a01b0316836001600160a01b031603612cd95760405162461bcd60e51b815260206004820152602960248201527f455243313135353a2073657474696e6720617070726f76616c20737461747573604482015268103337b91039b2b63360b91b6064820152608401610862565b6001600160a01b03838116600081815260016020908152604080832094871680845294825291829020805460ff191686151590811790915591519182527f17307eab39ab6107e8899845ad3d59bd9653f200f220920489ca2b5937696c31910160405180910390a3505050565b6001600160a01b038516331480612d625750612d6285336106cf565b612d7e5760405162461bcd60e51b815260040161086290613ac8565b610b448585858585613133565b6001600160a01b038416612db15760405162461bcd60e51b815260040161086290613e09565b8151835114612dd25760405162461bcd60e51b815260040161086290613d04565b3360005b8451811015612e6e57838181518110612df157612df1613ab2565b6020026020010151600080878481518110612e0e57612e0e613ab2565b602002602001015181526020019081526020016000206000886001600160a01b03166001600160a01b031681526020019081526020016000206000828254612e569190613a86565b90915550819050612e6681613a99565b915050612dd6565b50846001600160a01b031660006001600160a01b0316826001600160a01b03167f4a39dc06d4c0dbc64b70af90fd698a233a518aa5d07e595d983b8c0526c8f7fb8787604051612ebf929190613ddb565b60405180910390a4610b44816000878787875b6001600160a01b0384163b156112255760405163bc197c8160e01b81526001600160a01b0385169063bc197c8190612f169089908990889088908890600401613ed1565b6020604051808303816000875af1925050508015612f51575060408051601f3d908101601f19168201909252612f4e91810190613f2f565b60015b612ffd57612f5d613f4c565b806308c379a003612f965750612f71613f68565b80612f7c5750612f98565b8060405162461bcd60e51b815260040161086291906134e0565b505b60405162461bcd60e51b815260206004820152603460248201527f455243313135353a207472616e7366657220746f206e6f6e20455243313135356044820152732932b1b2b4bb32b91034b6b83632b6b2b73a32b960611b6064820152608401610862565b6001600160e01b0319811663bc197c8160e01b146128fd5760405162461bcd60e51b815260040161086290613ff1565b6040805160018082528183019092526060916000919060208083019080368337019050509050828160008151811061306757613067613ab2565b602090810291909101015292915050565b6001600160a01b0384163b156112255760405163f23a6e6160e01b81526001600160a01b0385169063f23a6e61906130bc9089908990889088908890600401614039565b6020604051808303816000875af19250505080156130f7575060408051601f3d908101601f191682019092526130f491810190613f2f565b60015b61310357612f5d613f4c565b6001600160e01b0319811663f23a6e6160e01b146128fd5760405162461bcd60e51b815260040161086290613ff1565b6001600160a01b0384166131595760405162461bcd60e51b815260040161086290613d4c565b3360006131658561302d565b905060006131728561302d565b90506000868152602081815260408083206001600160a01b038c168452909152902054858110156131b55760405162461bcd60e51b815260040161086290613d91565b6000878152602081815260408083206001600160a01b038d8116855292528083208985039055908a168252812080548892906131f2908490613a86565b909155505060408051888152602081018890526001600160a01b03808b16928c821692918816917fc3d58168c5ae7397731d063d5bbf3d657854427343f4c083240f7aacaa2d0f62910160405180910390a4613252848a8a8a8a8a613078565b505050505050505050565b8280548282559060005260206000209081019282156132b2579160200282015b828111156132b257825182546001600160a01b0319166001600160a01b0390911617825560209092019160019091019061327d565b506132be9291506132fd565b5090565b8280548282559060005260206000209081019282156132b2579160200282015b828111156132b25782518255916020019190600101906132e2565b5b808211156132be57600081556001016132fe565b80356001600160a01b038116811461332957600080fd5b919050565b6000806040838503121561334157600080fd5b61334a83613312565b946020939093013593505050565b6001600160e01b0319811681146108f557600080fd5b60006020828403121561338057600080fd5b813561338b81613358565b9392505050565b634e487b7160e01b600052604160045260246000fd5b601f8201601f191681016001600160401b03811182821017156133cd576133cd613392565b6040525050565b60006001600160401b038311156133ed576133ed613392565b604051613404601f8501601f1916602001826133a8565b80915083815284848401111561341957600080fd5b83836020830137600060208583010152509392505050565b60006020828403121561344357600080fd5b81356001600160401b0381111561345957600080fd5b8201601f8101841361346a57600080fd5b613479848235602084016133d4565b949350505050565b60006020828403121561349357600080fd5b5035919050565b6000815180845260005b818110156134c0576020818501810151868301820152016134a4565b506000602082860101526020601f19601f83011685010191505092915050565b60208152600061338b602083018461349a565b60006020828403121561350557600080fd5b61338b82613312565b600081518084526020808501945080840160005b8381101561353e57815187529582019590820190600101613522565b509495945050505050565b60208152600061338b602083018461350e565b60006001600160401b0382111561357557613575613392565b5060051b60200190565b600082601f83011261359057600080fd5b8135602061359d8261355c565b6040516135aa82826133a8565b83815260059390931b85018201928281019150868411156135ca57600080fd5b8286015b848110156135e557803583529183019183016135ce565b509695505050505050565b600082601f83011261360157600080fd5b61338b838335602085016133d4565b600080600080600060a0868803121561362857600080fd5b61363186613312565b945061363f60208701613312565b935060408601356001600160401b038082111561365b57600080fd5b61366789838a0161357f565b9450606088013591508082111561367d57600080fd5b61368989838a0161357f565b9350608088013591508082111561369f57600080fd5b506136ac888289016135f0565b9150509295509295909350565b600080604083850312156136cc57600080fd5b50508035926020909101359150565b600082601f8301126136ec57600080fd5b813560206136f98261355c565b60405161370682826133a8565b83815260059390931b850182019282810191508684111561372657600080fd5b8286015b848110156135e55761373b81613312565b835291830191830161372a565b6000806000806080858703121561375e57600080fd5b8435935060208501356001600160401b038082111561377c57600080fd5b613788888389016136db565b9450604087013591508082111561379e57600080fd5b506137ab8782880161357f565b949793965093946060013593505050565b600080604083850312156137cf57600080fd5b82356001600160401b03808211156137e657600080fd5b6137f2868387016136db565b9350602085013591508082111561380857600080fd5b506138158582860161357f565b9150509250929050565b6000806000806080858703121561383557600080fd5b8435935060208501356001600160401b038082111561385357600080fd5b61385f888389016136db565b9450604087013591508082111561387557600080fd5b6138818883890161357f565b9350606087013591508082111561389757600080fd5b506138a48782880161357f565b91505092959194509250565b600080604083850312156138c357600080fd5b6138cc83613312565b9150602083013580151581146138e157600080fd5b809150509250929050565b600080604083850312156138ff57600080fd5b61390883613312565b915061391660208401613312565b90509250929050565b60008060006060848603121561393457600080fd5b505081359360208301359350604090920135919050565b600080600080600060a0868803121561396357600080fd5b61396c86613312565b945061397a60208701613312565b9350604086013592506060860135915060808601356001600160401b038111156139a357600080fd5b6136ac888289016135f0565b6000806000606084860312156139c457600080fd5b83356001600160401b03808211156139db57600080fd5b6139e78783880161357f565b945060208601359150808211156139fd57600080fd5b613a098783880161357f565b93506040860135915080821115613a1f57600080fd5b50613a2c8682870161357f565b9150509250925092565b600181811c90821680613a4a57607f821691505b602082108103613a6a57634e487b7160e01b600052602260045260246000fd5b50919050565b634e487b7160e01b600052601160045260246000fd5b8082018082111561088e5761088e613a70565b600060018201613aab57613aab613a70565b5060010190565b634e487b7160e01b600052603260045260246000fd5b6020808252602f908201527f455243313135353a2063616c6c6572206973206e6f7420746f6b656e206f776e60408201526e195c881b9bdc88185c1c1c9bdd9959608a1b606082015260800190565b600082613b3457634e487b7160e01b600052601260045260246000fd5b500490565b6020808252601b908201527f75706772616465486f7273653a206c6f77207265736f75726365730000000000604082015260600190565b8181038181111561088e5761088e613a70565b808202811582820484141761088e5761088e613a70565b600060ff821660ff8103613bb057613bb0613a70565b60010192915050565b60208082526021908201527f5f726573756c74546865526163653a205f686f7273654964206d69736d6174636040820152600d60fb1b606082015260800190565b601f821115613c4057600081815260208120601f850160051c81016020861015613c215750805b601f850160051c820191505b8181101561122557828155600101613c2d565b505050565b81516001600160401b03811115613c5e57613c5e613392565b613c7281613c6c8454613a36565b84613bfa565b602080601f831160018114613ca75760008415613c8f5750858301515b600019600386901b1c1916600185901b178555611225565b600085815260208120601f198616915b82811015613cd657888601518255948401946001909101908401613cb7565b5085821015613cf45787850151600019600388901b60f8161c191681555b5050505050600190811b01905550565b60208082526028908201527f455243313135353a2069647320616e6420616d6f756e7473206c656e677468206040820152670dad2e6dac2e8c6d60c31b606082015260800190565b60208082526025908201527f455243313135353a207472616e7366657220746f20746865207a65726f206164604082015264647265737360d81b606082015260800190565b6020808252602a908201527f455243313135353a20696e73756666696369656e742062616c616e636520666f60408201526939103a3930b739b332b960b11b606082015260800190565b604081526000613dee604083018561350e565b8281036020840152613e00818561350e565b95945050505050565b60208082526021908201527f455243313135353a206d696e7420746f20746865207a65726f206164647265736040820152607360f81b606082015260800190565b60208082526023908201527f455243313135353a206275726e2066726f6d20746865207a65726f206164647260408201526265737360e81b606082015260800190565b60208082526024908201527f455243313135353a206275726e20616d6f756e7420657863656564732062616c604082015263616e636560e01b606082015260800190565b6001600160a01b0386811682528516602082015260a060408201819052600090613efd9083018661350e565b8281036060840152613f0f818661350e565b90508281036080840152613f23818561349a565b98975050505050505050565b600060208284031215613f4157600080fd5b815161338b81613358565b600060033d1115613f655760046000803e5060005160e01c5b90565b600060443d1015613f765790565b6040516003193d81016004833e81513d6001600160401b038160248401118184111715613fa557505050505090565b8285019150815181811115613fbd5750505050505090565b843d8701016020828501011115613fd75750505050505090565b613fe6602082860101876133a8565b509095945050505050565b60208082526028908201527f455243313135353a204552433131353552656365697665722072656a656374656040820152676420746f6b656e7360c01b606082015260800190565b6001600160a01b03868116825285166020820152604081018490526060810183905260a0608082018190526000906140739083018461349a565b97965050505050505056fea264697066735822122015d1fe7e9a5fc5154c7b66f35e94584b63a2db9040cd5864773d03e4a1d1a25f64736f6c63430008130033",
    "sourcePath": "c:/Users/Ahmet Musa/Desktop/cryptosemerci/NFast/Contracts/RewardSplitter/GiddyUp.sol",
    "compiler": {
        "name": "solc",
        "version": "0.8.19+commit.7dd6d404"
    },
    "functionHashes": {
        "COIN()": "a54a72b7",
        "DURABILITY_UTILS()": "4b6bd7e0",
        "HORSE_INIT_ID()": "afdc71a1",
        "SPEED_UTILS()": "11bb58cf",
        "STABILITY_UTILS()": "f12b7840",
        "admin()": "f851a440",
        "balanceOf(address,uint256)": "00fdd58e",
        "balanceOfBatch(address[],uint256[])": "4e1273f4",
        "changeMaxHorses(uint256)": "7e5e52f3",
        "changeTreasury(address)": "b14f2a39",
        "checkHorseBalance(address)": "268cf127",
        "contractBalance()": "8b7afe2e",
        "endRace(uint256,address[],uint256[],uint256[])": "87c8fa47",
        "horseStats(uint256,uint256)": "c2e1a46c",
        "horses(uint256)": "8f8b5cde",
        "isApprovedForAll(address,address)": "e985e9c5",
        "maxNumOfHorses()": "2ef76b96",
        "mintCoin(uint256)": "f3f7d04f",
        "mintHorse()": "61fc6a67",
        "mintHorse(address)": "346334fb",
        "mintUtil(uint256,uint256,uint256)": "eaf9bc14",
        "mintUtilBatch(uint256[],uint256[],uint256[])": "fa3cf6c2",
        "nftPrice()": "0d39fc81",
        "numOfHorses()": "051907dc",
        "owner()": "8da5cb5b",
        "raceId()": "ed3a865e",
        "races(uint256)": "7bbc469e",
        "racesBalance()": "9bb7f50e",
        "renounceOwnership()": "715018a6",
        "safeBatchTransferFrom(address,address,uint256[],uint256[],bytes)": "2eb2c2d6",
        "safeTransferFrom(address,address,uint256,uint256,bytes)": "f242432a",
        "setApprovalForAll(address,bool)": "a22cb465",
        "setPrice(uint256,uint256)": "f7d97577",
        "setURI(string)": "02fe5305",
        "startRace(uint256,address[],uint256[],uint256)": "4c76c243",
        "supportsInterface(bytes4)": "01ffc9a7",
        "tokenPrice()": "7ff9b596",
        "transferOwnership(address)": "f2fde38b",
        "unit()": "907af6c0",
        "upgradeHorse(uint256,uint256)": "40779c1d",
        "uri(uint256)": "0e89341c",
        "withdrawAll()": "853828b6"
    },
    "gasEstimates": {
        "creation": {
            "codeDepositCost": "3312800",
            "executionCost": "infinite",
            "totalCost": "infinite"
        },
        "external": {
            "COIN()": "273",
            "DURABILITY_UTILS()": "274",
            "HORSE_INIT_ID()": "295",
            "SPEED_UTILS()": "252",
            "STABILITY_UTILS()": "317",
            "admin()": "2469",
            "balanceOf(address,uint256)": "2723",
            "balanceOfBatch(address[],uint256[])": "infinite",
            "changeMaxHorses(uint256)": "26722",
            "changeTreasury(address)": "26868",
            "checkHorseBalance(address)": "infinite",
            "contractBalance()": "2352",
            "endRace(uint256,address[],uint256[],uint256[])": "infinite",
            "horseStats(uint256,uint256)": "infinite",
            "horses(uint256)": "13263",
            "isApprovedForAll(address,address)": "infinite",
            "maxNumOfHorses()": "2418",
            "mintCoin(uint256)": "infinite",
            "mintHorse()": "infinite",
            "mintHorse(address)": "infinite",
            "mintUtil(uint256,uint256,uint256)": "infinite",
            "mintUtilBatch(uint256[],uint256[],uint256[])": "infinite",
            "nftPrice()": "2419",
            "numOfHorses()": "2397",
            "owner()": "2410",
            "raceId()": "2395",
            "races(uint256)": "8941",
            "racesBalance()": "2329",
            "renounceOwnership()": "infinite",
            "safeBatchTransferFrom(address,address,uint256[],uint256[],bytes)": "infinite",
            "safeTransferFrom(address,address,uint256,uint256,bytes)": "infinite",
            "setApprovalForAll(address,bool)": "26750",
            "setPrice(uint256,uint256)": "24694",
            "setURI(string)": "infinite",
            "startRace(uint256,address[],uint256[],uint256)": "infinite",
            "supportsInterface(bytes4)": "601",
            "tokenPrice()": "2417",
            "transferOwnership(address)": "28402",
            "unit()": "2418",
            "upgradeHorse(uint256,uint256)": "infinite",
            "uri(uint256)": "infinite",
            "withdrawAll()": "infinite"
        },
        "internal": {
            "_calculateHorseId(uint256)": "infinite",
            "_resultTheRace(uint256,uint256,uint256)": "infinite"
        }
    }
}